:100000000C9472000C9493000C9493000C94930045
:100010000C9493000C9493000C9493000C94930014
:100020000C9493000C9493000C9493000C94930004
:100030000C9493000C9493000C9493000C949300F4
:100040000C9493000C9493000C9493000C949300E4
:100050000C9493000C9493000C9493000C949300D4
:100060000C9493000C9493000C9493000C949300C4
:100070000C9493000C9493000C9493000C949300B4
:100080000C942D020C9489020C94E5020C949300BC
:100090000C9493000C9493000C9493000C94930094
:1000A0000C9493000C9493000C9493000C94930084
:1000B0000C9493000C9493000C9493000C94930074
:1000C0000C9493000C9493000C9493000C94930064
:1000D0000C9493000C9493000C9493000C94930054
:1000E0000C94930011241FBECFEFD1E2DEBFCDBF31
:1000F00000E00CBF12E0A0E0B2E0EAEEFDE000E0BC
:100100000BBF02C007900D92AA30B107D9F712E0D9
:10011000AAE0B2E001C01D92A135B107E1F70E944B
:1001200074040C94F3060C940000F894E1E9F0E0F8
:100130001082109290001092920083E080838EE0F3
:1001400080937100789408951F93CF93DF9390E08C
:10015000FC01EE0FFF1FE80FF91FEE0FFF1FEE0F60
:10016000FF1FEE0FFF1FE81BF90BE45FFD4F268515
:10017000223019F421E030E002C022E030E06623B2
:1001800019F4309521953F4FFC01EE0FFF1FE80F4A
:10019000F91FEE0FFF1FEE0FFF1FEE0FFF1FE81BF3
:1001A000F90BDF01A45FBD4F54968C915497280F33
:1001B000277054962C93549754968C91A2E0B2E0F9
:1001C000A80FB11D4C91DF01A45FBD4FEC5EFD4F48
:1001D00023E030E050E061E070E0CA01022E02C08E
:1001E000959587950A94E2F780FF0EC0CD91DC913A
:1001F00011971881CB01008002C0880F991F0A94C3
:10020000E2F7812B88830EC0CD91DC911197188184
:10021000CB01008002C0880F991F0A94E2F78095F5
:100220008123888321503040129631968FEF2F3FE3
:10023000380799F6DF91CF911F9108958F929F9281
:10024000AF92CF92DF92EF92FF920F931F93CF93D3
:10025000DF93CDB7DEB7DB01B901F98899249401AA
:10026000220F331F280D391D220F331F220F331F7A
:10027000220F331F28193909F901E45FFD4F9183DB
:100280008083B383A2835583448377836683008707
:10029000E186C286A386AF010F2EF4E1CF2EF2E0F5
:1002A000DF2EF02DC20ED31E20E001E010E0DA01B7
:1002B000ED91FC913291B601D601C8010D9002C0BA
:1002C000880F991F0A94E2F76D01832B8083DA016E
:1002D000ED91FD91AD013081C801DB010C9002C0B0
:1002E000880F991F0A94E2F78095382330832F5F97
:1002F0002430E9F6F401EE0FFF1FE80DF91DEE0FB3
:10030000FF1FEE0FFF1FEE0FFF1FE819F909E45F53
:10031000FD4F8F85988995878487F686B1E0FB1617
:1003200091F4F401EE0FFF1FE80DF91DEE0FFF1F12
:10033000EE0FFF1FEE0FFF1FE819F909E45FFD4FF5
:1003400081E0848B10C0F401EE0FFF1FE80DF91D52
:10035000EE0FFF1FEE0FFF1FEE0FFF1FE819F90949
:10036000E45FFD4F148A80910A0290910B0200977E
:10037000C1F581E292E01092220210922102FC016A
:10038000329721E02083FC01369780E090E0A0E2E4
:10039000B1E480839183A283B383109239021092D7
:1003A0003802209336028093320290933302A09356
:1003B0003402B09335021092500210924F022093F3
:1003C0004D028093490290934A02A0934B02B0934E
:1003D0004C020E94950081E090E090930B02809384
:1003E0000A02DF91CF911F910F91FF90EF90DF9064
:1003F000CF90AF909F908F9008958F92AF92CF92B1
:10040000DF92EF92FF920F931F93CF93DF93FC0144
:10041000162FF42EC22FD02F8E2C00D0ADB7BEB722
:100420001296DC92CE9211971396AC92BF01AF0157
:100430009F01012FEF2CCC2EAD2E0E941E010F909C
:100440000F900F90DF91CF911F910F91FF90EF9040
:10045000DF90CF90AF908F9008951F920F920FB6BC
:100460000F920BB60F9211240F931F932F933F936C
:100470004F935F936F937F938F939F93AF93BF93AC
:10048000CF93DF93EF93FF9380912102909122020B
:10049000009741F160911F0280E090E070E00E94BF
:1004A000A400809121029091220201979093220250
:1004B00080932102C8E9D0E00881198120911B02B4
:1004C00030911C0240911D0250911E0260E070E0CC
:1004D00081E698E40E946E050E94D605060F171F5C
:1004E00019830883FF91EF91DF91CF91BF91AF9175
:1004F0009F918F917F916F915F914F913F912F913C
:100500001F910F910F900BBE0F900FBE0F901F9079
:1005100018951F920F920FB60F920BB60F921124DF
:100520000F931F932F933F934F935F936F937F93FB
:100530008F939F93AF93BF93CF93DF93EF93FF93EB
:100540008091380290913902009741F16091360212
:1005500081E090E070E00E94A400809138029091C8
:10056000390201979093390280933802CAE9D0E0AA
:100570000881198120913202309133024091340276
:100580005091350260E070E081E698E40E946E05CB
:100590000E94D605060F171F19830883FF91EF915C
:1005A000DF91CF91BF91AF919F918F917F916F918B
:1005B0005F914F913F912F911F910F910F900BBE23
:1005C0000F900FBE0F901F9018951F920F920FB6AD
:1005D0000F920BB60F9211240F931F932F933F93FB
:1005E0004F935F936F937F938F939F93AF93BF933B
:1005F000CF93DF93EF93FF9380914F02909150023E
:10060000009741F160914D0282E090E070E00E941D
:10061000A40080914F029091500201979093500254
:1006200080934F02CCE9D0E00881198120914902E2
:1006300030914A0240914B0250914C0260E070E0D0
:1006400081E698E40E946E050E94D605060F171FEA
:1006500019830883FF91EF91DF91CF91BF91AF9103
:100660009F918F917F916F915F914F913F912F91CA
:100670001F910F910F900BBE0F900FBE0F901F9008
:10068000189590E09C01220F331F280F391F220F6D
:10069000331F220F331F220F331F281B390BF90181
:1006A000E45FFD4F4787508B618B728B0895CF932A
:1006B000DF93FB01282F30E0B901660F771F620F2F
:1006C000731F660F771F660F771F660F771F621BFA
:1006D000730BDB01A45FBD4F53964C935397569613
:1006E000FC93EE935597813009F1813020F08230F0
:1006F00009F051C036C0C0919400D091950020916E
:100700001B0230911C0240911D0250911E0260E0BC
:1007100070E081E698E40E946E050E94D605C60F3F
:10072000D71FD0939900C093980035C0C091940012
:10073000D0919500209132023091330240913402E1
:100740005091350260E070E081E698E40E946E0509
:100750000E94D605C60FD71FD0939B00C0939A0066
:100760001AC0C0919400D091950020914902309117
:100770004A0240914B0250914C0260E070E081E6E9
:1007800098E40E946E050E94D605C60FD71FD0932D
:100790009B00C0939A00DF91CF910895CF92DF9292
:1007A000EF92FF92CF93DF93C82F6A017B01D22F84
:1007B00090E0FC01EE0FFF1FE80FF91FEE0FFF1F87
:1007C000EE0FFF1FEE0FFF1FE81BF90BE45FFD4F5D
:1007D0002685223051F59C01220F331F280F391F27
:1007E000220F331F220F331F220F331F281B390BF9
:1007F000F901E45FFD4F6485758580E090E00E941B
:100800000206A70196010E94900620E030E044E332
:1008100053E40E946E050E94D605AB01BC018C2FEB
:10082000BA014D2F0E94570329C09C01220F331F8C
:10083000280F391F220F331F220F331F220F331FA0
:10084000281B390BF901E45FFD4F6485758580E055
:1008500090E00E940206A70196010E94900620E007
:1008600030E044EB53E40E946E050E94D605AB01D4
:10087000BC018C2FBA014D2F0E945703DF91CF91FD
:10088000FF90EF90DF90CF90089590E0FC01EE0F85
:10089000FF1FE80FF91FEE0FFF1FEE0FFF1FEE0FF8
:1008A000FF1FE81BF90BEF5DFD4F808191810097E1
:1008B000E1F7089590E0FC01EE0FFF1FE80FF91F2C
:1008C000EE0FFF1FEE0FFF1FEE0FFF1FE81BF90BD0
:1008D000E45FFD4F2589368981E090E021153105DF
:1008E00011F480E090E0089500D088EC90E0EDB73E
:1008F000FEB79283818381E083838BE091E06BE09C
:1009000071E04BE250E02BE230E007E00F2EF6E022
:10091000EF2EF02DCC24C394AA2488240E941E011B
:100920000F900F900F906091000270910102882744
:1009300077FD8095982F0E940406AB01BC0180E0F2
:100940000E94410380E060ED77E041E00E945703A0
:100950008091210290912202F6E081349F0718F1E4
:10096000C1E2D2E060910002709101026F5F7F4F9F
:100970007093010260930002882777FD8095982F7D
:100980000E940406AB01BC0180E00E9441038FEF8E
:1009900097E40197F1F700C0000088819981E6E0B3
:1009A00081349E07F8F6E1E2F2E08081918121E056
:1009B00081399207D0F78091000290910102853031
:1009C0009105FCF001979093010280930002FC01D5
:1009D000BF01882777FD8095982F0E940406AB0100
:1009E000BC0180E00E9441038FEF97E40197F1F78B
:1009F00000C00000809100029091010285309105B5
:100A00000CF784E090E0909301028093000280E074
:100A100040E050E060E870E40E94410380E060ED57
:100A200077E040E00E9457038091210290912202DA
:100A3000E6E081349E0718F1C1E2D2E06091000245
:100A4000709101026F5F7F4F70930102609300020B
:100A5000882777FD8095982F0E940406AB01BC0182
:100A600080E00E9441038FEF97E40197F1F700C007
:100A7000000088819981E6E081349E07F8F6E1E282
:100A8000F2E08081918121E081399207D0F7809155
:100A900000029091010285309105FCF0019790933E
:100AA000010280930002FC01BF01882777FD809539
:100AB000982F0E940406AB01BC0180E00E94410314
:100AC0008FEF97E40197F1F700C0000080910002DA
:100AD00090910102853091050CF7FFCF0CD0E6C054
:100AE000DED040F0D5D030F021F45F3F19F0C7C020
:100AF000511110C1CAC0EBD098F39923C9F3552303
:100B0000B1F3951B550BBB27AA2762177307840700
:100B100038F09F5F5F4F220F331F441FAA1FA9F3B6
:100B200033D00E2E3AF0E0E830D091505040E695A8
:100B3000001CCAF729D0FE2F27D0660F771F881F09
:100B4000BB1F261737074807AB07B0E809F0BB0BF8
:100B5000802DBF01FF2793585F4F2AF09E3F51051C
:100B600068F08DC0D7C05F3FECF3983EDCF386950C
:100B700077956795B795F7959F5FC9F7880F911D92
:100B80009695879597F90895E1E0660F771F881F7E
:100B9000BB1F621773078407BA0720F0621B730B31
:100BA000840BBA0BEE1F88F7E095089598D088F073
:100BB0009F5790F0B92F9927B751A0F0D1F0660F49
:100BC000771F881F991F1AF0BA95C9F712C0B13064
:100BD00081F09FD0B1E008959CC0672F782F8827BF
:100BE000B85F39F0B93FCCF3869577956795B395A3
:100BF000D9F73EF490958095709561957F4F8F4F12
:100C00009F4F0895E89409C097FB3EF49095809516
:100C1000709561957F4F8F4F9F4F9923A9F0F92FC2
:100C200096E9BB279395F695879577956795B79540
:100C3000F111F8CFFAF4BB0F11F460FF1BC06F5F26
:100C40007F4F8F4F9F4F16C0882311F096E911C038
:100C5000772321F09EE8872F762F05C0662371F059
:100C600096E8862F70E060E02AF09A95660F771F6D
:100C7000881FDAF7880F9695879597F9089597F961
:100C80009F6780E870E060E008959FEF80EC089532
:100C900000240A941616170618060906089500245B
:100CA0000A9412161306140605060895092E0394D5
:100CB000000C11F4882352F0BB0F40F4BF2B11F449
:100CC00060FF04C06F5F7F4F8F4F9F4F089557FDA8
:100CD0009058440F551F59F05F3F71F04795880FAA
:100CE00097FB991F61F09F3F79F087950895121641
:100CF00013061406551FF2CF4695F1DF08C01616ED
:100D000017061806991FF1CF86957105610508949D
:100D10000895E894BB2766277727CB0197F90895B4
:100D20000BD0C4CFB5DF28F0BADF18F0952309F057
:100D3000A6CFABCF1124EECFCADFA0F3959FD1F39E
:100D4000950F50E0551F629FF001729FBB27F00D79
:100D5000B11D639FAA27F00DB11DAA1F649F6627CE
:100D6000B00DA11D661F829F2227B00DA11D621F1D
:100D7000739FB00DA11D621F839FA00D611D221FD7
:100D8000749F3327A00D611D231F849F600D211DBB
:100D9000822F762F6A2F11249F5750408AF0E1F05E
:100DA00088234AF0EE0FFF1FBB1F661F771F881FA7
:100DB00091505040A9F79E3F510570F060CFAACFE7
:100DC0005F3FECF3983EDCF3869577956795B79592
:100DD000F795E7959F5FC1F7FE2B880F911D9695BC
:0A0DE000879597F90895F894FFCF66
:0A0DEA000400080C040602030109CE
:00000001FF
