:100000000C9472000C9493000C9493000C94930045
:100010000C9493000C9493000C9493000C94930014
:100020000C9493000C9493000C9493000C94930004
:100030000C9493000C9493000C9493000C949300F4
:100040000C9493000C94C8020C94F5020C942303B6
:100050000C94EA040C9493000C9493000C94930079
:100060000C9493000C9493000C9493000C949300C4
:100070000C9493000C9493000C9493000C949300B4
:100080000C9493000C9493000C9493000C949300A4
:100090000C9493000C9493000C9493000C94930094
:1000A0000C9493000C9493000C9493000C94930084
:1000B0000C9493000C9493000C9493000C94930074
:1000C0000C9493000C9493000C9493000C94930064
:1000D0000C9493000C9493000C9493000C94930054
:1000E0000C94930011241FBECFEFD1E2DEBFCDBF31
:1000F00000E00CBF12E0A0E0B2E0E2E3F8E100E0D3
:100100000BBF02C007900D92A231B107D9F713E0DF
:10011000A2E1B2E001C01D92A039B107E1F70E944F
:100120007A060C94170C0C94000086E69EE001976A
:10013000F1F700004098419880E388B9429AEFEFC8
:10014000F7E43197F1F700C000004298E6E6FEE0E0
:100150003197F1F700004098419888B9429AEFEF43
:10016000F7E43197F1F700C000004298E6E6FEE0C0
:100170003197F1F700004098419888B9429A8FEF83
:1001800097E40197F1F700C000004298E6E6FEE030
:100190003197F1F700004098419880E288B9429A7F
:1001A0008FEF97E40197F1F700C00000429808959F
:1001B00098B19F7098B998B1282F207F922B98B949
:1001C00040984198429AEFEFF7E43197F1F700C079
:1001D0000000429898B19F7098B998B18295807F3D
:1001E000892B88B940984198429A8FEF97E40197FC
:1001F000F1F700C00000429808950E94950086E63D
:100200009EE00197F1F7000088E20E94D80081E0AB
:100210000E94D80086E00E94D8008EE00E94D8009C
:1002200080E80E94D800089598B19F7098B998B15D
:10023000282F207F922B98B9409A4198429AEFEF4D
:10024000F7E43197F1F700C00000429898B19F7031
:1002500098B998B18295807F892B88B9409A419846
:10026000429A8FEF97E40197F1F700C0000042989F
:10027000089580E80E94D8000895CF93DF93EC01A1
:100280008881882331F021960E9414018991882366
:10029000D9F7DF91CF910895823079F0833018F447
:1002A0008130C9F405C0833069F08430A1F40FC0F7
:1002B000862F81580E94D8000895862F81540E946D
:1002C000D8000895862F8D560E94D8000895862F55
:1002D0008D520E94D80008950F931F93CF93DF9300
:1002E0008A01E901882311F0662319F40E9439017B
:1002F00002C00E944C01C530D10571F4C80160E113
:1003000077E20E943309CB01C09690931402809348
:1003100013020E94140103C0C430D105B9F4C8010E
:1003200068EE73E00E943309CB017093160260936C
:1003300015026AE070E00E943309C09690938F0323
:1003400080938E030E94140181E001C080E0C330DD
:10035000D10511F08130B1F4C80164E670E00E946B
:100360003309CB0170931602609315026AE070E0C6
:100370000E943309C09690938B0380938A030E9456
:10038000140181E0C230D10511F08130B1F42AE0CE
:1003900030E0C801B9010E943309CB017093160205
:1003A00060931502B9010E943309C0969093A80288
:1003B0008093A7020E94140181E0C130D10511F0A1
:1003C000813061F4C8016AE070E00E943309C09690
:1003D00090938D0380938C030E941401C630D10545
:1003E0001CF085E40E941401DF91CF911F910F91C1
:1003F000089581E00E94D8008FEF9FE80197F1F700
:1004000000C0000008950F931F93CF93DF93CDB7E3
:10041000DEB7A1970FB6F894DEBF0FBECDBFFE01C9
:10042000B9966191719119821A821B821C829E0178
:100430002B5F3F4F8DE1D9011D928A95E9F7CE01DF
:1004400001964E2F5F2F0E944709082F192FCE01CA
:1004500001960E943D01802F912FA1960FB6F8942E
:10046000DEBF0FBECDBFDF91CF911F910F910895D9
:1004700090E0FC01EE0FFF1FEE0FFF1FEE0FFF1FBE
:100480008E0F9F1FFC01E755FD4F168215820895C0
:1004900090E0DC01AA0FBB1FAA0FBB1FAA0FBB1F56
:1004A000A80FB91FA755BD4FED91FC911197408141
:1004B00012968C91129721E030E0B90102C0660FCC
:1004C000771F8A95E2F7CB01809584238083089576
:1004D00090E0DC01AA0FBB1FAA0FBB1FAA0FBB1F16
:1004E000A80FB91FA755BD4FED91FC911197408101
:1004F00012968C91129721E030E0B90102C0660F8C
:10050000771F8A95E2F7CB01842B80830895E1E879
:10051000F0E010828FEF9FE6909385008093840037
:100520008FEF9FE8909389008093880090938B00D1
:1005300080938A0010928D0010928C009093870017
:1005400080938600109280001092820081E0808368
:10055000089580E090E029EA32E0FC01EE0FFF1FF1
:10056000EE0FFF1FEE0FFF1FE80FF91FE20FF31F43
:1005700016821582148213821086178201968831A2
:10058000910559F70E9487028FE080936F000895CC
:100590001F920F920FB60F920BB60F9211242F934A
:1005A0003F934F935F936F937F938F939F93AF93FB
:1005B000BF93EF93FF9380911202982F990F890FA9
:1005C0000E944802FF91EF91BF91AF919F918F914F
:1005D0007F916F915F914F913F912F910F900BBE43
:1005E0000F900FBE0F901F9018951F920F920FB68D
:1005F0000F920BB60F9211242F933F934F935F935B
:100600006F937F938F939F93AF93BF93EF93FF93DA
:1006100080911202982F990F890F8F5F0E944802D4
:10062000FF91EF91BF91AF919F918F917F916F91CA
:100630005F914F913F912F910F900BBE0F900FBE86
:100640000F901F9018951F920F920FB60F920BB636
:100650000F9211242F933F934F935F936F937F9348
:100660008F939F93AF93BF93EF93FF938091120269
:10067000982F990F890F8E5F0E944802FF91EF918A
:10068000BF91AF919F918F917F916F915F914F91AA
:100690003F912F910F900BBE0F900FBE0F901F90A8
:1006A0001895682F792F653B710510F064EB70E0A9
:1006B00080E090E00E94420826E933E44BE053E4F6
:1006C0000E94D0082CE53EE842E157E40E9445072D
:1006D0000E941608862F972F08950F931F93CF938C
:1006E000DF93DC01493138F550E0EA01CC0FDD1F22
:1006F000CC0FDD1FCC0FDD1FC40FD51FC755DD4F3D
:10070000998388836A83FC01829101E010E0A8014B
:1007100002C0440F551F6A95E2F7BA01842B80830B
:100720008C91682B6C93822F90E00E9451039C83E4
:100730008B831E830D83DF91CF911F910F910895BD
:10074000CF93DF938931B8F4C82FD0E0862F90E0A3
:100750000E9451039E01220F331F220F331F220FCD
:10076000331FC20FD31FC755DD4F9C838B8381E09E
:1007700090E09E838D83DF91CF91089590E0FC01FE
:10078000EE0FFF1FE80FF91FEE0FFF1FE95EFD4F91
:100790004283538364837583FC01EE0FFF1FEE0FCA
:1007A000FF1FEE0FFF1FE80FF91FE755FD4F2781D1
:1007B000308521153105C1F4FC01EE0FFF1FEE0F4E
:1007C000FF1FEE0FFF1FE80FF91FE755FD4F2381B5
:1007D0003481FC01EE0FFF1FE80FF91FEE0FFF1F22
:1007E000E95EFD4F31832083FC01EE0FFF1FEE0F0A
:1007F000FF1FEE0FFF1F8E0F9F1FFC01E755FD4FE0
:1008000081E090E0908787830895CF93DF93C82F8E
:10081000D0E0862F90E00E9451039E01220F331FEB
:10082000C20FD31FCC0FDD1FC95EDD4F99838883B4
:10083000DF91CF91089590E0FC01EE0FFF1FEE0FC6
:10084000FF1FEE0FFF1F8E0F9F1FFC01E755FD4F8F
:10085000838194818E5A9F486BE870E00E9433092F
:10086000862F0895CF92DF92EF92FF92CF93DF937E
:10087000C82FD0E0FE01EE0FFF1FEE0FFF1FEE0F9F
:10088000FF1FEC0FFD1FE755FD4F83819481FE0193
:10089000EE0FFF1FEC0FFD1FEE0FFF1FE95EFD4F78
:1008A00020813181821B930B18161906C4F59C0117
:1008B000B901882777FD8095982F0E9444086B0125
:1008C0007C01FE01EE0FFF1FEC0FFD1FEE0FFF1F5F
:1008D000E95EFD4F628173818481958120E030E083
:1008E0004BE053E40E94D00820E030E048E452E4BA
:1008F0000E94A9079B01AC01C701B6010E944407F1
:10090000462F572F682F792FCB01BA010E9411086B
:10091000862F972F9923ECF580E090E03AC0992339
:10092000C4F59C01B901882777FD8095982F0E9416
:1009300044086B017C01FE01EE0FFF1FEC0FFD1F51
:10094000EE0FFF1FE95EFD4F628173818481958107
:1009500020E030E04BE053E40E94D00820E030E09B
:1009600048E452E40E94A9079B01AC01C701B6010B
:100970000E944507462F572F682F792FCB01BA01C8
:100980000E941108862F972F1816190614F480E07C
:1009900090E0FE01EE0FFF1FEC0FFD1FEE0FFF1F9B
:1009A000E95EFD4F20813181820F931F9E01220F4E
:1009B000331F220F331F220F331FC20FD31FC75500
:1009C000DD4F9C838B83DF91CF91FF90EF90DF9081
:1009D000CF9008951F920F920FB60F920BB60F9201
:1009E0001124EF92FF920F931F932F933F934F93F6
:1009F0005F936F937F938F939F93AF93BF93CF93A7
:100A0000DF93EF93FF938FEF9FE6909385008093A2
:100A10008400809112028F5F80931202883010F060
:100A2000109212028091120290E0EC01CC0FDD1FB7
:100A3000C80FD91FFE01EE0FFF1FEE0FFF1FEE0FB5
:100A4000FF1FEC0FFD1FE755FD4F85819681009735
:100A500019F08C2F0E9468028E010F5F1F4FF80162
:100A6000EE0FFF1FEE0FFF1FEE0FFF1FE00FF11F36
:100A7000E755FD4F85819681009721F08C2F8F5F80
:100A80000E946802EE24FF246894E1F8EC0EFD1E3B
:100A9000F701EE0FFF1FEE0FFF1FEE0FFF1FEE0D12
:100AA000FF1DE755FD4F85819681009721F08C2F22
:100AB0008E5F0E946802FE01EE0FFF1FEE0FFF1F08
:100AC000EE0FFF1FEC0FFD1FE755FD4F858196814F
:100AD000009721F1FE01EE0FFF1FEE0FFF1FEE0F3B
:100AE000FF1FEC0FFD1FE755FD4F87819085009795
:100AF00019F08C2F0E943204FE01EE0FFF1FEE0F43
:100B0000FF1FEE0FFF1FEC0FFD1FE755FD4F838109
:100B10009481909389008093880006C08FEF9FEFA7
:100B20009093890080938800F801EE0FFF1FEE0F6D
:100B3000FF1FEE0FFF1FE00FF11FE755FD4F8581EF
:100B40009681009731F1F801EE0FFF1FEE0FFF1FA6
:100B5000EE0FFF1FE00FF11FE755FD4F87819085D6
:100B6000009721F08C2F8F5F0E943204C801880FFC
:100B7000991F880F991F880F991F800F911FFC01E3
:100B8000E755FD4F8381948190938B0080938A0079
:100B900006C08FEF9FEF90938B0080938A00F70140
:100BA000EE0FFF1FEE0FFF1FEE0FFF1FEE0DFF1DDD
:100BB000E755FD4F85819681009729F1F701EE0FEA
:100BC000FF1FEE0FFF1FEE0FFF1FEE0DFF1DE7557E
:100BD000FD4F87819085009721F08C2F8E5F0E94BA
:100BE0003204F701EE0FFF1FEE0FFF1FEE0FFF1F86
:100BF000EE0DFF1DE755FD4F8381948190938D008D
:100C000080938C0006C08FEF9FEF90938D008093B0
:100C10008C00FF91EF91DF91CF91BF91AF919F91A8
:100C20008F917F916F915F914F913F912F911F9184
:100C30000F91FF90EF900F900BBE0F900FBE0F9093
:100C40001F90189590E0DC01AA0FBB1FAA0FBB1FD5
:100C5000AA0FBB1FA80FB91FA455BD4FFC01EE0F73
:100C6000FF1F8E0F9F1FFC01EE0FFF1FE95EFD4F60
:100C70002D913C9111978081918128173907C1F7F7
:100C8000089590E0FC01EE0FFF1FEE0FFF1FEE0F27
:100C9000FF1FE80FF91FE755FD4F23813481FC0149
:100CA000EE0FFF1F8E0F9F1FFC01EE0FFF1FE95E6F
:100CB000FD4F4081518181E090E02417350711F00C
:100CC00080E090E00895259A2D9A269A2E9A279AE8
:100CD0002F9A089587B1876F87B988B1807888B9CE
:100CE0000895F8940E946A060E9463060E94A90271
:100CF000789408950E9471060E94FD0085E290E0BC
:100D000065E040E020E00E946D038FEF9FEFA6E8D2
:100D100081509040A040E1F700C0000080E040E03A
:100D200050E068EC73E40E94BE0380E064EB0E9434
:100D300005040F920F9280E092E0ADB7BEB7129615
:100D40009C938E9311970E9403020F900F9080E066
:100D50000E9422068FEF9FEFA6E881509040A040AE
:100D6000E1F700C000000E94F90180E040E050E09F
:100D700068E473E40E94BE0380E060E00E94050422
:100D80000F920F9284E092E0ADB7BEB712969C939B
:100D90008E9311970E9403020F900F9080E00E94A3
:100DA00022068FEF9FEFA6E881509040A040E1F728
:100DB00000C000000E94F90180E040E050E068ECD3
:100DC00072E40E94BE0380E064EB0E9405040F926F
:100DD0000F9288E092E0ADB7BEB712969C938E93C7
:100DE00011970E9403020F900F9080E00E9422064C
:100DF0008FEF9FEFA6E881509040A040E1F700C040
:100E000000000E94F90180E040E050E068E472E4F4
:100E10000E94BE0380E060E00E9405040F920F92E2
:100E20008CE092E0ADB7BEB712969C938E9311976B
:100E30000E9403020F900F9080E00E9422068FEF25
:100E40009FEFA6E881509040A040E1F700C000006D
:100E50000E94F90180E040E050E060E271E40E940D
:100E6000BE0380E064EB0E9405040F920F928FE0B6
:100E700092E0ADB7BEB712969C938E9311970E94E5
:100E800003020F900F90FFCF5058BB27AA270ED018
:100E90004DC13ED130F043D120F031F49F3F11F4E9
:100EA0001EF433C10EF4E095E7FB29C1E92F4FD1C1
:100EB00080F3BA17620773078407950718F071F477
:100EC0009EF567C10EF4E0950B2EBA2FA02D0B01F5
:100ED000B90190010C01CA01A0011124FF27591B7F
:100EE00099F0593F50F4503E68F11A16F040A22F85
:100EF000232F342F4427585FF3CF469537952795F6
:100F0000A795F0405395C9F77EF41F16BA0B620BF4
:100F1000730B840BBAF09150A1F0FF0FBB1F661F3B
:100F2000771F881FC2F70EC0BA0F621F731F841F7E
:100F300048F4879577956795B795F7959E3F08F0A4
:100F4000B3CF9395880F08F09927EE0F9795879563
:100F500008950CD0EBC0E3D040F0DAD030F021F4AB
:100F60005F3F19F0CCC0511115C1CFC0F0D098F33C
:100F70009923C9F35523B1F3951B550BBB27AA271A
:100F800062177307840738F09F5F5F4F220F331F8C
:100F9000441FAA1FA9F333D00E2E3AF0E0E830D058
:100FA00091505040E695001CCAF729D0FE2F27D05B
:100FB000660F771F881FBB1F261737074807AB0729
:100FC000B0E809F0BB0B802DBF01FF2793585F4F9E
:100FD0002AF09E3F510568F092C0DCC05F3FECF301
:100FE000983EDCF3869577956795B795F7959F5F63
:100FF000C9F7880F911D9695879597F90895E1E0B7
:10100000660F771F881FBB1F621773078407BA0715
:1010100020F0621B730B840BBA0BEE1F88F7E09570
:10102000089504D06894B111B5C0089598D088F09F
:101030009F5790F0B92F9927B751A0F0D1F0660FC4
:10104000771F881F991F1AF0BA95C9F712C0B130DF
:1010500081F09FD0B1E008959CC0672F782F88273A
:10106000B85F39F0B93FCCF3869577956795B3951E
:10107000D9F73EF490958095709561957F4F8F4F8D
:101080009F4F0895E89409C097FB3EF49095809592
:10109000709561957F4F8F4F9F4F9923A9F0F92F3E
:1010A00096E9BB279395F695879577956795B795BC
:1010B000F111F8CFFAF4BB0F11F460FF1BC06F5FA2
:1010C0007F4F8F4F9F4F16C0882311F096E911C0B4
:1010D000772321F09EE8872F762F05C0662371F0D5
:1010E00096E8862F70E060E02AF09A95660F771FE9
:1010F000881FDAF7880F9695879597F9089597F9DD
:101100009F6780E870E060E008959FEF80EC0895AD
:1011100000240A94161617061806090608950024D6
:101120000A9412161306140605060895092E039450
:10113000000C11F4882352F0BB0F40F4BF2B11F4C4
:1011400060FF04C06F5F7F4F8F4F9F4F089557FD23
:101150009058440F551F59F05F3F71F04795880F25
:1011600097FB991F61F09F3F79F0879508951216BC
:1011700013061406551FF2CF4695F1DF08C0161668
:1011800017061806991FF1CF869571056105089419
:101190000895E894BB2766277727CB0197F9089530
:1011A0000BD0C4CFB5DF28F0BADF18F0952309F0D3
:1011B000A6CFABCF1124EECFCADFA0F3959FD1F31A
:1011C000950F50E0551F629FF001729FBB27F00DF5
:1011D000B11D639FAA27F00DB11DAA1F649F66274A
:1011E000B00DA11D661F829F2227B00DA11D621F99
:1011F000739FB00DA11D621F839FA00D611D221F53
:10120000749F3327A00D611D231F849F600D211D36
:10121000822F762F6A2F11249F5750408AF0E1F0D9
:1012200088234AF0EE0FFF1FBB1F661F771F881F22
:1012300091505040A9F79E3F510570F060CFAACF62
:101240005F3FECF3983EDCF3869577956795B7950D
:10125000F795E7959F5FC1F7FE2B880F911D969537
:10126000879597F90895AA1BBB1B51E107C0AA1FD8
:10127000BB1FA617B70710F0A61BB70B881F991F37
:101280005A95A9F780959095BC01CD0108950F93CB
:101290001F93CF93DF93CDB7DEB72E970FB6F89499
:1012A000DEBF0FBECDBF8C0186E08C831A8309831D
:1012B0008FEF9FE79E838D83CE0101960E94700978
:1012C000EF81F885E00FF11F10822E960FB6F8948B
:1012D000DEBF0FBECDBFDF91CF911F910F9108955B
:1012E0002F923F924F925F926F927F928F929F9236
:1012F000AF92BF92CF92DF92EF92FF920F931F9324
:10130000CF93DF93CDB7DEB72D970FB6F894DEBF3E
:101310000FBECDBF3C017D876C875A01FC0117824F
:101320001682838181FFC8C12E010894411C511C83
:10133000F3019381EC85FD8593FD859193FF819168
:10134000FD87EC87882309F4B3C1853241F493FD0E
:10135000859193FF8191FD87EC87853229F490E098
:10136000B3010E948D0BE4CFFF24EE2410E0103275
:10137000B0F48B3269F08C3228F4803251F0833231
:1013800071F40BC08D3239F0803349F411602CC0F8
:101390001260146029C0186027C0106125C017FDB5
:1013A0002EC0282F20532A3098F416FF08C08F2D06
:1013B000880FF82EFF0CFF0CF80EF20E15C08E2DC4
:1013C000880FE82EEE0CEE0CE80EE20E10620CC058
:1013D0008E3221F416FD6CC1106406C08C3611F4F7
:1013E000106802C0883659F4EC85FD8593FD85911F
:1013F00093FF8191FD87EC87882309F0B8CF982F60
:101400009554933018F09052933038F424E030E043
:10141000A20EB31E3FE339830FC0833631F083370A
:1014200081F0833509F05AC022C0F501808189839B
:1014300022E030E0A20EB31E21E0C22ED12C4201E8
:1014400014C092E0292E312C2A0C3B1CF50180801F
:10145000918016FF03C06F2D70E002C06FEF7FEF29
:10146000C4010E94820B6C0151011F7715C082E0FC
:10147000282E312C2A0C3B1CF5018080918016FF10
:1014800003C06F2D70E002C06FEF7FEFC4010E94B8
:10149000770B6C011068510113FD1CC006C080E27F
:1014A00090E0B3010E948D0BEA948E2D90E0C81657
:1014B000D906A8F30FC0F40117FD859117FF81919C
:1014C0004F0190E0B3010E948D0BE110EA94089463
:1014D000C108D108C114D10471F7E7C0843611F0F6
:1014E000893651F5F50117FF07C080819181A281EE
:1014F000B38124E030E008C080819181AA2797FD64
:10150000A095BA2F22E030E0A20EB31E012F0F7675
:10151000B7FF08C0B095A095909581959F4FAF4FAC
:10152000BF4F0068BC01CD01A2012AE030E00E945B
:10153000B90BD82ED4183FC0853721F41F7E2AE07E
:1015400030E020C0197F8F36A9F0803720F488352D
:1015500009F0AEC00BC0803721F0883709F0A8C071
:1015600001C0106114FF09C0146007C014FF08C057
:10157000166006C028E030E005C020E130E002C07F
:1015800020E132E0F50117FF07C06081718182819F
:10159000938144E050E006C06081718180E090E07A
:1015A00042E050E0A40EB51EA2010E94B90BD82E55
:1015B000D418012F0F7706FF09C00E7FDF1430F417
:1015C00004FF06C002FD04C00F7E02C01D2D01C035
:1015D0001F2D802F90E004FF0CC0FE01ED0DF11DCA
:1015E0002081203311F4097E09C002FF06C01E5F6E
:1015F00005C086789070009709F01F5F802E9924AF
:1016000003FD12C000FF0DC0FD2C1E1550F4FE0C92
:10161000F11A1E2D06C080E290E0B3010E948D0BEE
:101620001F5F1E15C0F304C01E1510F4E11A01C09F
:10163000EE2484FE0FC080E390E0B3010E948D0B86
:1016400082FE1FC081FE03C088E590E010C088E7DD
:1016500090E00DC0C40186789070009791F081FCF5
:1016600002C080E201C08BE207FD8DE290E0B30191
:101670000E948D0B06C080E390E0B3010E948D0BA9
:10168000FA94DF14C0F3DA94F201ED0DF11D8081BC
:1016900090E0B3010E948D0BDD20A9F706C080E227
:1016A00090E0B3010E948D0BEA94EE20C1F740CE8A
:1016B000F3018681978102C08FEF9FEF2D960FB6C1
:1016C000F894DEBF0FBECDBFDF91CF911F910F9178
:1016D000FF90EF90DF90CF90BF90AF909F908F9052
:1016E0007F906F905F904F903F902F900895FC01F6
:1016F0000590615070400110D8F7809590958E0F3D
:101700009F1F0895FC016150704001900110D8F7AF
:10171000809590958E0F9F1F08950F931F93CF93E1
:10172000DF938C01EB018B8181FF1BC082FF0DC019
:101730002E813F818C819D812817390764F4E881CF
:10174000F9810193F983E88306C0E885F985802F44
:101750001995009731F48E819F8101969F838E8326
:1017600002C00FEF1FEFC801DF91CF911F910F91C2
:101770000895FA01AA27283051F1203181F1E89427
:101780006F936E7F6E5F7F4F8F4F9F4FAF4FB1E074
:101790003ED0B4E03CD0670F781F891F9A1FA11D6F
:1017A000680F791F8A1F911DA11D6A0F711D811D70
:1017B000911DA11D20D009F468943F912AE0269F35
:1017C00011243019305D3193DEF6CF010895462F94
:1017D0004770405D4193B3E00FD0C9F7F6CF462F75
:1017E0004F70405D4A3318F0495D31FD40524193DE
:1017F00002D0A9F7EACFB4E0A6959795879577959B
:101800006795BA95C9F700976105710508959B0121
:10181000AC010A2E06945795479537952795BA95AA
:10182000C9F7620F731F841F951FA01D0895F894B8
:02183000FFCFE8
:101832003430300032303000313030003530003159
:02184200300074
:00000001FF
