:100000000C9472000C9493000C9493000C94930045
:100010000C9493000C9493000C9493000C94930014
:100020000C9493000C9493000C9493000C94930004
:100030000C9493000C9493000C9493000C949300F4
:100040000C9493000C94C6010C9493000C949300B0
:100050000C9493000C9493000C9493000C949300D4
:100060000C9493000C9493000C9493000C949300C4
:100070000C9493000C9493000C9493000C949300B4
:100080000C9493000C9493000C9493000C949300A4
:100090000C9493000C9493000C9493000C94930094
:1000A0000C9493000C9493000C9493000C94930084
:1000B0000C9493000C9493000C9493000C94930074
:1000C0000C9493000C9493000C9493000C94930064
:1000D0000C9493000C9493000C9493000C94930054
:1000E0000C94930011241FBECFEFD1E2DEBFCDBF31
:1000F00000E00CBF12E0A0E0B2E0E4EAF4E000E0CF
:100100000BBF02C007900D92A830B107D9F712E0DB
:10011000A8E0B2E001C01D92AA30B107E1F70E9449
:1001200011020C9450020C940000EAE0F1E080818E
:10013000806C80838AB183608AB90895209102021D
:1001400030910302280F391FC901049664E070E062
:100150000E942902282F392F8093020290930302D4
:1001600021303105C9F02230310524F42115310543
:1001700041F0089522303105D1F02330310561F589
:1001800021C0EBE0F1E080818068808380818F7BFB
:100190008083599858980895EBE0F1E080818F773B
:1001A0008083808180648083599858980895EBE01B
:1001B000F1E080818F77808380818F7B8083599A63
:1001C00058980895EBE0F1E080818F7780838081FB
:1001D0008F7B80835998589A08952091040230911A
:1001E0000502280F391FC901049664E070E00E94DF
:1001F0002902282F392F8093040290930502213081
:100200003105C9F02230310524F42115310541F0C2
:10021000089522303105D1F02330310561F521C038
:10022000EBE0F1E08081806880838081806480835E
:10023000599858980895EBE0F1E080818F7780839A
:10024000808180648083599A58980895EBE0F1E0AA
:1002500080818F77808380818F7B8083599A589AA1
:100260000895EBE0F1E080818068808380818F7B5E
:1002700080835998589A0895209106023091070278
:10028000280F391FC901089668E070E00E94290212
:10029000282F392F809306029093070223303105CF
:1002A000F1F12430310554F42130310511F12230BF
:1002B000310554F52115310589F0089525303105B2
:1002C00009F443C025303105ACF12630310509F47D
:1002D00047C02730310509F058C04DC0EBE0F1E0D0
:1002E00080818068808380818F7B80835998589833
:1002F0000895EBE0F1E080818068808380818064F4
:100300008083599858980895EBE0F1E080818F77C9
:100310008083808180648083599858980895EBE0A9
:10032000F1E080818F778083808180648083599A17
:1003300058980895EBE0F1E080818F778083808189
:100340008F7B8083599A58980895EBE0F1E0808183
:100350008F77808380818F7B8083599A589A089504
:10036000EBE0F1E080818F77808380818F7B8083D9
:100370005998589A0895EBE0F1E080818068808375
:1003800080818F7B80835998589A08951F920F928D
:100390000FB60F920BB60F9211242F933F934F93EA
:1003A0005F936F937F938F939F93AF93BF93EF93DD
:1003B000FF9380910002909101020E949E00809123
:1003C0000802909109020196909309028093080215
:1003D0008091080290910902893C91057CF08091FE
:1003E000000290910102909581959F4F9093010298
:1003F000809300021092090210920802FF91EF917F
:10040000BF91AF919F918F917F916F915F914F912C
:100410003F912F910F900BBE0F900FBE0F901F902A
:1004200018950E949500F894E1E8F0E080818860DA
:100430008083AFE6B0E08C9182608C9378948FEFEC
:100440009FEB9093890080938800808181608083F6
:10045000FFCF97FB092E07260AD077FD04D00CD0DA
:1004600006D000201AF4709561957F4F0895F6F735
:10047000909581959F4F0895AA1BBB1B51E107C022
:10048000AA1FBB1FA617B70710F0A61BB70B881F24
:10049000991F5A95A9F780959095BC01CD010895B3
:0404A000F894FFCFFE
:0804A4000100FFFFFFFFFFFF55
:00000001FF
