:100000000C9472000C9493000C9493000C94930045
:100010000C9493000C9493000C9493000C94930014
:100020000C9493000C9493000C9493000C94930004
:100030000C9493000C9493000C9493000C949300F4
:100040000C9493000C94C9000C94FB000C942701B1
:100050000C9431010C9493000C9493000C94930035
:100060000C9493000C9493000C9493000C949300C4
:100070000C9493000C9493000C9493000C949300B4
:100080000C9493000C9493000C9493000C949300A4
:100090000C9493000C9493000C9493000C94930094
:1000A0000C9493000C9493000C9493000C94930084
:1000B0000C9493000C9493000C9493000C94930074
:1000C0000C9493000C9493000C9493000C94930064
:1000D0000C9493000C9493000C9493000C94930054
:1000E0000C94930011241FBECFEFD1E2DEBFCDBF31
:1000F00000E00CBF12E0A0E0B2E0E2E5F4E000E0D6
:100100000BBF02C007900D92A030B107D9F712E0E3
:10011000A0E0B2E001C01D92A031B107E1F70E945A
:10012000D6010C9427020C940000259A2D9A269A49
:100130002E9A279A2F9A08952D9808952D9A08950A
:100140002E9808952E9A08952F9808952F9A08951D
:10015000E1E8F0E0108280E78093850021E02093C1
:1001600084009FE8909389008FEF8093880090939C
:100170008B0080938A0010928D0010928C009093D7
:100180008700809386001092800010928200208366
:1001900008951F920F920FB60F920BB60F92112473
:1001A0002F933F934F935F936F937F938F939F937F
:1001B000AF93BF93EF93FF9380910302882311F4D1
:1001C0000E949C0080910302813011F40E94A000E3
:1001D000FF91EF91BF91AF919F918F917F916F911F
:1001E0005F914F913F912F910F900BBE0F900FBEDB
:1001F0000F901F9018951F920F920FB60F920BB68B
:100200000F9211242F933F934F935F936F937F939C
:100210008F939F93AF93BF93EF93FF9380910302CC
:10022000882311F40E94A400FF91EF91BF91AF9138
:100230009F918F917F916F915F914F913F912F91FE
:100240000F900BBE0F900FBE0F901F9018951F922E
:100250000F920FB60F9211240F900FBE0F901F90A8
:1002600018951F920F920FB60F920BB60F92112492
:100270002F933F934F935F936F937F938F939F93AE
:10028000AF93BF93EF93FF9380E78093850081E066
:1002900080938400809103028F5F809303028830F3
:1002A00018F01092030202C08823A1F40E949E005D
:1002B0000E94A60080910D028093890080910C021B
:1002C000809388008091040280938B0080910602C5
:1002D00080938A0080910302813051F40E94A20031
:1002E000809105028093890080910E02809388009E
:1002F000FF91EF91BF91AF919F918F917F916F91FE
:100300005F914F913F912F910F900BBE0F900FBEB9
:100310000F901F90189580910002853B18F084EB98
:10032000809300024091000250E02BE830E0429FB1
:10033000C001439F900D529F900D1124825590470C
:1003400080930102909302020895809300020E941C
:100350008B018091020280930D02809101028093B3
:100360000C020895809300020E948B01809102028A
:10037000809305028091010280930E02089580937C
:1003800000020E948B0180910202809304028091FE
:100390000102809306020895F8940E9495000E943D
:1003A000A8008FE080936F00789408950E94CC019C
:1003B00080E00E94A50180E00E94B20180E00E94DE
:1003C000BF018FEF9FEFA9E581509040A040E1F77A
:1003D00000C0000080E00E94A5018FEF9FEFACE21B
:1003E00081509040A040E1F700C000008DE20E94E3
:1003F000A5018FEF9FEFACE281509040A040E1F764
:1004000000C000008AE50E94A5018FEF9FEFACE2DB
:1004100081509040A040E1F700C0000087E80E94B2
:10042000A5018FEF9FEFACE281509040A040E1F733
:1004300000C0000084EB0E94A5018FEF9FEFACE2AB
:1004400081509040A040E1F700C00000C3CFF89475
:02045000FFCFDC
:00000001FF
